{
  "contractName": "Election",
  "abi": [
    {
      "inputs": [],
      "stateMutability": "nonpayable",
      "type": "constructor"
    },
    {
      "anonymous": false,
      "inputs": [
        {
          "indexed": true,
          "internalType": "uint256",
          "name": "_candidateId",
          "type": "uint256"
        }
      ],
      "name": "votedEvent",
      "type": "event"
    },
    {
      "inputs": [
        {
          "internalType": "uint256",
          "name": "",
          "type": "uint256"
        }
      ],
      "name": "candidates",
      "outputs": [
        {
          "internalType": "uint256",
          "name": "id",
          "type": "uint256"
        },
        {
          "internalType": "string",
          "name": "name",
          "type": "string"
        },
        {
          "internalType": "uint256",
          "name": "voteCount",
          "type": "uint256"
        }
      ],
      "stateMutability": "view",
      "type": "function",
      "constant": true
    },
    {
      "inputs": [],
      "name": "noOfCandidates",
      "outputs": [
        {
          "internalType": "uint256",
          "name": "",
          "type": "uint256"
        }
      ],
      "stateMutability": "view",
      "type": "function",
      "constant": true
    },
    {
      "inputs": [
        {
          "internalType": "address",
          "name": "",
          "type": "address"
        }
      ],
      "name": "voters",
      "outputs": [
        {
          "internalType": "bool",
          "name": "",
          "type": "bool"
        }
      ],
      "stateMutability": "view",
      "type": "function",
      "constant": true
    },
    {
      "inputs": [
        {
          "internalType": "uint256",
          "name": "_candidateId",
          "type": "uint256"
        }
      ],
      "name": "vote",
      "outputs": [],
      "stateMutability": "nonpayable",
      "type": "function"
    }
  ],
  "bytecode": "0x608060405234801561001057600080fd5b506100556040518060400160405280600b81526020017f43616e646964617465203100000000000000000000000000000000000000000081525061009e60201b60201c565b6100996040518060400160405280600b81526020017f43616e646964617465203200000000000000000000000000000000000000000081525061009e60201b60201c565b6102a6565b600260008154809291906100b1906101fc565b919050555060405180606001604052806002548152602001828152602001600081525060016000600254815260200190815260200160002060008201518160000155602082015181600101908051906020019061010f929190610120565b506040820151816002015590505050565b82805461012c90610274565b90600052602060002090601f01602090048101928261014e5760008555610195565b82601f1061016757805160ff1916838001178555610195565b82800160010185558215610195579182015b82811115610194578251825591602001919060010190610179565b5b5090506101a291906101a6565b5090565b5b808211156101bf5760008160009055506001016101a7565b5090565b7f4e487b7100000000000000000000000000000000000000000000000000000000600052601160045260246000fd5b6000819050919050565b6000610207826101f2565b91507fffffffffffffffffffffffffffffffffffffffffffffffffffffffffffffffff82141561023a576102396101c3565b5b600182019050919050565b7f4e487b7100000000000000000000000000000000000000000000000000000000600052602260045260246000fd5b6000600282049050600182168061028c57607f821691505b602082108114156102a05761029f610245565b5b50919050565b61078c806102b56000396000f3fe608060405234801561001057600080fd5b506004361061004c5760003560e01c80630121b93f14610051578063183531a11461006d5780633477ee2e1461008b578063a3ec138d146100bd575b600080fd5b61006b60048036038101906100669190610390565b6100ed565b005b61007561027d565b60405161008291906103cc565b60405180910390f35b6100a560048036038101906100a09190610390565b610283565b6040516100b493929190610480565b60405180910390f35b6100d760048036038101906100d2919061051c565b610335565b6040516100e49190610564565b60405180910390f35b6000803373ffffffffffffffffffffffffffffffffffffffff1673ffffffffffffffffffffffffffffffffffffffff16815260200190815260200160002060009054906101000a900460ff1615610179576040517f08c379a0000000000000000000000000000000000000000000000000000000008152600401610170906105cb565b60405180910390fd5b60008111801561018b57506002548111155b6101ca576040517f08c379a00000000000000000000000000000000000000000000000000000000081526004016101c19061065d565b60405180910390fd5b60016000803373ffffffffffffffffffffffffffffffffffffffff1673ffffffffffffffffffffffffffffffffffffffff16815260200190815260200160002060006101000a81548160ff021916908315150217905550600160008281526020019081526020016000206002016000815480929190610248906106ac565b9190505550807ffff3c900d938d21d0990d786e819f29b8d05c1ef587b462b939609625b684b1660405160405180910390a250565b60025481565b60016020528060005260406000206000915090508060000154908060010180546102ac90610724565b80601f01602080910402602001604051908101604052809291908181526020018280546102d890610724565b80156103255780601f106102fa57610100808354040283529160200191610325565b820191906000526020600020905b81548152906001019060200180831161030857829003601f168201915b5050505050908060020154905083565b60006020528060005260406000206000915054906101000a900460ff1681565b600080fd5b6000819050919050565b61036d8161035a565b811461037857600080fd5b50565b60008135905061038a81610364565b92915050565b6000602082840312156103a6576103a5610355565b5b60006103b48482850161037b565b91505092915050565b6103c68161035a565b82525050565b60006020820190506103e160008301846103bd565b92915050565b600081519050919050565b600082825260208201905092915050565b60005b83811015610421578082015181840152602081019050610406565b83811115610430576000848401525b50505050565b6000601f19601f8301169050919050565b6000610452826103e7565b61045c81856103f2565b935061046c818560208601610403565b61047581610436565b840191505092915050565b600060608201905061049560008301866103bd565b81810360208301526104a78185610447565b90506104b660408301846103bd565b949350505050565b600073ffffffffffffffffffffffffffffffffffffffff82169050919050565b60006104e9826104be565b9050919050565b6104f9816104de565b811461050457600080fd5b50565b600081359050610516816104f0565b92915050565b60006020828403121561053257610531610355565b5b600061054084828501610507565b91505092915050565b60008115159050919050565b61055e81610549565b82525050565b60006020820190506105796000830184610555565b92915050565b7f796f75206861766520616c726561647920766f74656400000000000000000000600082015250565b60006105b56016836103f2565b91506105c08261057f565b602082019050919050565b600060208201905081810360008301526105e4816105a8565b9050919050565b7f566f746520666f722074686520676976656e2063616e64696461746573206f6e60008201527f6c79000000000000000000000000000000000000000000000000000000000000602082015250565b60006106476022836103f2565b9150610652826105eb565b604082019050919050565b600060208201905081810360008301526106768161063a565b9050919050565b7f4e487b7100000000000000000000000000000000000000000000000000000000600052601160045260246000fd5b60006106b78261035a565b91507fffffffffffffffffffffffffffffffffffffffffffffffffffffffffffffffff8214156106ea576106e961067d565b5b600182019050919050565b7f4e487b7100000000000000000000000000000000000000000000000000000000600052602260045260246000fd5b6000600282049050600182168061073c57607f821691505b602082108114156107505761074f6106f5565b5b5091905056fea2646970667358221220272e1f89e15fb2d33d87aa8cf23f827ace86b1b6d2b83750c567c91d492e166964736f6c634300080c0033",
  "immutableReferences": {},
  "source": "// SPDX-License-Identifier: MIT\r\npragma solidity ^0.8.12;\r\n\r\ncontract Election{\r\n    //model a candidate\r\n    struct Candidate {\r\n        uint id;\r\n        string name;\r\n        uint voteCount;\r\n    }\r\n\r\n    //to know a particular address has votes or not\r\n    mapping(address=>bool) public voters;\r\n\r\n//store and fetch candidate\r\n    mapping(uint=>Candidate) public candidates;\r\n\r\n\r\n // voted event\r\n    event votedEvent(uint256 indexed _candidateId);\r\n\r\n    constructor(){\r\n        addCandidate(\"Candidate 1\");\r\n        addCandidate(\"Candidate 2\");  \r\n    }\r\n    //store candidates count\r\n    uint public noOfCandidates;\r\n    function addCandidate(string memory _name) private{   //keeping private so that only contract can add candidates\r\n        noOfCandidates++;\r\n        candidates[noOfCandidates]=Candidate(noOfCandidates,_name,0);    //no of candidates will represent the id and thus used as index\r\n\r\n    }\r\n\r\n    // to vote for particular candidate\r\n    function vote(uint _candidateId) public{\r\n        //to check that voter cannot vote twice\r\n        require(!voters[msg.sender],\"you have already voted\");\r\n\r\n        //to check if voter is voting to a valid candidate\r\n        require(_candidateId>0 && _candidateId<=noOfCandidates,\"Vote for the given candidates only\");\r\n        //record that voter has voted\r\n         voters[msg.sender]=true;\r\n\r\n         //update candidate vote\r\n        candidates[_candidateId].voteCount++;\r\n\r\n         // trigger voted event\r\n        emit votedEvent(_candidateId);\r\n    }\r\n\r\n    \r\n       \r\n    \r\n}",
  "sourcePath": "C:\\Users\\harshita saxena\\OneDrive\\Desktop\\Elections project\\contracts\\Election.sol",
  "compiler": {
    "name": "solc",
    "version": "0.8.12+commit.f00d7308.Emscripten.clang"
  },
  "schemaVersion": "3.4.4",
  "updatedAt": "2022-02-27T16:26:23.754Z",
  "networkType": "ethereum",
  "devdoc": {
    "kind": "dev",
    "methods": {},
    "version": 1
  },
  "userdoc": {
    "kind": "user",
    "methods": {},
    "version": 1
  }
}